{
  "address": "0xEC620591563f9772bd61283eB426874Bdf30D878",
  "abi": [
    {
      "inputs": [],
      "stateMutability": "nonpayable",
      "type": "constructor"
    },
    {
      "inputs": [
        {
          "internalType": "address",
          "name": "target",
          "type": "address"
        }
      ],
      "name": "AddressEmptyCode",
      "type": "error"
    },
    {
      "inputs": [
        {
          "internalType": "address",
          "name": "implementation",
          "type": "address"
        }
      ],
      "name": "ERC1967InvalidImplementation",
      "type": "error"
    },
    {
      "inputs": [],
      "name": "ERC1967NonPayable",
      "type": "error"
    },
    {
      "inputs": [
        {
          "internalType": "address",
          "name": "spender",
          "type": "address"
        },
        {
          "internalType": "uint256",
          "name": "allowance",
          "type": "uint256"
        },
        {
          "internalType": "uint256",
          "name": "needed",
          "type": "uint256"
        }
      ],
      "name": "ERC20InsufficientAllowance",
      "type": "error"
    },
    {
      "inputs": [
        {
          "internalType": "address",
          "name": "sender",
          "type": "address"
        },
        {
          "internalType": "uint256",
          "name": "balance",
          "type": "uint256"
        },
        {
          "internalType": "uint256",
          "name": "needed",
          "type": "uint256"
        }
      ],
      "name": "ERC20InsufficientBalance",
      "type": "error"
    },
    {
      "inputs": [
        {
          "internalType": "address",
          "name": "approver",
          "type": "address"
        }
      ],
      "name": "ERC20InvalidApprover",
      "type": "error"
    },
    {
      "inputs": [
        {
          "internalType": "address",
          "name": "receiver",
          "type": "address"
        }
      ],
      "name": "ERC20InvalidReceiver",
      "type": "error"
    },
    {
      "inputs": [
        {
          "internalType": "address",
          "name": "sender",
          "type": "address"
        }
      ],
      "name": "ERC20InvalidSender",
      "type": "error"
    },
    {
      "inputs": [
        {
          "internalType": "address",
          "name": "spender",
          "type": "address"
        }
      ],
      "name": "ERC20InvalidSpender",
      "type": "error"
    },
    {
      "inputs": [],
      "name": "FailedCall",
      "type": "error"
    },
    {
      "inputs": [],
      "name": "InvalidInitialization",
      "type": "error"
    },
    {
      "inputs": [],
      "name": "NotInitializing",
      "type": "error"
    },
    {
      "inputs": [
        {
          "internalType": "address",
          "name": "owner",
          "type": "address"
        }
      ],
      "name": "OwnableInvalidOwner",
      "type": "error"
    },
    {
      "inputs": [
        {
          "internalType": "address",
          "name": "account",
          "type": "address"
        }
      ],
      "name": "OwnableUnauthorizedAccount",
      "type": "error"
    },
    {
      "inputs": [],
      "name": "UUPSUnauthorizedCallContext",
      "type": "error"
    },
    {
      "inputs": [
        {
          "internalType": "bytes32",
          "name": "slot",
          "type": "bytes32"
        }
      ],
      "name": "UUPSUnsupportedProxiableUUID",
      "type": "error"
    },
    {
      "anonymous": false,
      "inputs": [
        {
          "indexed": true,
          "internalType": "address",
          "name": "owner",
          "type": "address"
        },
        {
          "indexed": true,
          "internalType": "address",
          "name": "spender",
          "type": "address"
        },
        {
          "indexed": false,
          "internalType": "uint256",
          "name": "value",
          "type": "uint256"
        }
      ],
      "name": "Approval",
      "type": "event"
    },
    {
      "anonymous": false,
      "inputs": [
        {
          "indexed": false,
          "internalType": "uint64",
          "name": "version",
          "type": "uint64"
        }
      ],
      "name": "Initialized",
      "type": "event"
    },
    {
      "anonymous": false,
      "inputs": [
        {
          "indexed": true,
          "internalType": "address",
          "name": "previousOwner",
          "type": "address"
        },
        {
          "indexed": true,
          "internalType": "address",
          "name": "newOwner",
          "type": "address"
        }
      ],
      "name": "OwnershipTransferred",
      "type": "event"
    },
    {
      "anonymous": false,
      "inputs": [
        {
          "indexed": true,
          "internalType": "address",
          "name": "from",
          "type": "address"
        },
        {
          "indexed": true,
          "internalType": "address",
          "name": "to",
          "type": "address"
        },
        {
          "indexed": false,
          "internalType": "uint256",
          "name": "value",
          "type": "uint256"
        }
      ],
      "name": "Transfer",
      "type": "event"
    },
    {
      "anonymous": false,
      "inputs": [
        {
          "indexed": true,
          "internalType": "address",
          "name": "implementation",
          "type": "address"
        }
      ],
      "name": "Upgraded",
      "type": "event"
    },
    {
      "inputs": [],
      "name": "UPGRADE_INTERFACE_VERSION",
      "outputs": [
        {
          "internalType": "string",
          "name": "",
          "type": "string"
        }
      ],
      "stateMutability": "view",
      "type": "function"
    },
    {
      "inputs": [
        {
          "internalType": "address",
          "name": "owner",
          "type": "address"
        },
        {
          "internalType": "address",
          "name": "spender",
          "type": "address"
        }
      ],
      "name": "allowance",
      "outputs": [
        {
          "internalType": "uint256",
          "name": "",
          "type": "uint256"
        }
      ],
      "stateMutability": "view",
      "type": "function"
    },
    {
      "inputs": [
        {
          "internalType": "address",
          "name": "spender",
          "type": "address"
        },
        {
          "internalType": "uint256",
          "name": "value",
          "type": "uint256"
        }
      ],
      "name": "approve",
      "outputs": [
        {
          "internalType": "bool",
          "name": "",
          "type": "bool"
        }
      ],
      "stateMutability": "nonpayable",
      "type": "function"
    },
    {
      "inputs": [
        {
          "internalType": "address",
          "name": "account",
          "type": "address"
        }
      ],
      "name": "balanceOf",
      "outputs": [
        {
          "internalType": "uint256",
          "name": "",
          "type": "uint256"
        }
      ],
      "stateMutability": "view",
      "type": "function"
    },
    {
      "inputs": [],
      "name": "decimals",
      "outputs": [
        {
          "internalType": "uint8",
          "name": "",
          "type": "uint8"
        }
      ],
      "stateMutability": "view",
      "type": "function"
    },
    {
      "inputs": [],
      "name": "initialize",
      "outputs": [],
      "stateMutability": "nonpayable",
      "type": "function"
    },
    {
      "inputs": [],
      "name": "name",
      "outputs": [
        {
          "internalType": "string",
          "name": "",
          "type": "string"
        }
      ],
      "stateMutability": "view",
      "type": "function"
    },
    {
      "inputs": [],
      "name": "owner",
      "outputs": [
        {
          "internalType": "address",
          "name": "",
          "type": "address"
        }
      ],
      "stateMutability": "view",
      "type": "function"
    },
    {
      "inputs": [],
      "name": "proxiableUUID",
      "outputs": [
        {
          "internalType": "bytes32",
          "name": "",
          "type": "bytes32"
        }
      ],
      "stateMutability": "view",
      "type": "function"
    },
    {
      "inputs": [],
      "name": "renounceOwnership",
      "outputs": [],
      "stateMutability": "nonpayable",
      "type": "function"
    },
    {
      "inputs": [],
      "name": "symbol",
      "outputs": [
        {
          "internalType": "string",
          "name": "",
          "type": "string"
        }
      ],
      "stateMutability": "view",
      "type": "function"
    },
    {
      "inputs": [],
      "name": "totalSupply",
      "outputs": [
        {
          "internalType": "uint256",
          "name": "",
          "type": "uint256"
        }
      ],
      "stateMutability": "view",
      "type": "function"
    },
    {
      "inputs": [
        {
          "internalType": "address",
          "name": "to",
          "type": "address"
        },
        {
          "internalType": "uint256",
          "name": "value",
          "type": "uint256"
        }
      ],
      "name": "transfer",
      "outputs": [
        {
          "internalType": "bool",
          "name": "",
          "type": "bool"
        }
      ],
      "stateMutability": "nonpayable",
      "type": "function"
    },
    {
      "inputs": [
        {
          "internalType": "address",
          "name": "from",
          "type": "address"
        },
        {
          "internalType": "address",
          "name": "to",
          "type": "address"
        },
        {
          "internalType": "uint256",
          "name": "value",
          "type": "uint256"
        }
      ],
      "name": "transferFrom",
      "outputs": [
        {
          "internalType": "bool",
          "name": "",
          "type": "bool"
        }
      ],
      "stateMutability": "nonpayable",
      "type": "function"
    },
    {
      "inputs": [
        {
          "internalType": "address",
          "name": "newOwner",
          "type": "address"
        }
      ],
      "name": "transferOwnership",
      "outputs": [],
      "stateMutability": "nonpayable",
      "type": "function"
    },
    {
      "inputs": [
        {
          "internalType": "address",
          "name": "newImplementation",
          "type": "address"
        },
        {
          "internalType": "bytes",
          "name": "data",
          "type": "bytes"
        }
      ],
      "name": "upgradeToAndCall",
      "outputs": [],
      "stateMutability": "payable",
      "type": "function"
    }
  ],
  "transactionHash": "0x1389ccd8ed201001dd9b5176e0d2fc12fd57ca4927d1704d9c5254b5ea304da1",
  "args": [],
  "numDeployments": 3,
  "solcInputHash": "32f1de1b960c943d33e181460b0c218a",
  "bytecode": "0x60a06040523073ffffffffffffffffffffffffffffffffffffffff1660809073ffffffffffffffffffffffffffffffffffffffff1681525034801561004357600080fd5b5061005261005760201b60201c565b6101de565b600061006761015b60201b60201c565b90508060000160089054906101000a900460ff16156100b2576040517ff92ee8a900000000000000000000000000000000000000000000000000000000815260040160405180910390fd5b67ffffffffffffffff80168160000160009054906101000a900467ffffffffffffffff1667ffffffffffffffff16146101585767ffffffffffffffff8160000160006101000a81548167ffffffffffffffff021916908367ffffffffffffffff1602179055507fc7f505b2f371ae2175ee4913f4499e1f2633a7b5936321eed1cdaeb6115181d267ffffffffffffffff60405161014f91906101c3565b60405180910390a15b50565b60008061016c61017560201b60201c565b90508091505090565b60007ff0c57e16840df040f15088dc2f81fe391c3923bec73e23a9662efc9c229c6a0060001b905090565b600067ffffffffffffffff82169050919050565b6101bd816101a0565b82525050565b60006020820190506101d860008301846101b4565b92915050565b60805161227161020760003960008181610bcf01528181610c240152610ddf01526122716000f3fe6080604052600436106100f35760003560e01c8063715018a61161008a578063a9059cbb11610059578063a9059cbb146102fb578063ad3cb1cc14610338578063dd62ed3e14610363578063f2fde38b146103a0576100f3565b8063715018a6146102775780638129fc1c1461028e5780638da5cb5b146102a557806395d89b41146102d0576100f3565b8063313ce567116100c6578063313ce567146101c85780634f1ef286146101f357806352d1902d1461020f57806370a082311461023a576100f3565b806306fdde03146100f8578063095ea7b31461012357806318160ddd1461016057806323b872dd1461018b575b600080fd5b34801561010457600080fd5b5061010d6103c9565b60405161011a9190611952565b60405180910390f35b34801561012f57600080fd5b5061014a60048036038101906101459190611a1c565b61046a565b6040516101579190611a77565b60405180910390f35b34801561016c57600080fd5b5061017561048d565b6040516101829190611aa1565b60405180910390f35b34801561019757600080fd5b506101b260048036038101906101ad9190611abc565b6104a5565b6040516101bf9190611a77565b60405180910390f35b3480156101d457600080fd5b506101dd6104d4565b6040516101ea9190611b2b565b60405180910390f35b61020d60048036038101906102089190611c7b565b6104dd565b005b34801561021b57600080fd5b506102246104fc565b6040516102319190611cf0565b60405180910390f35b34801561024657600080fd5b50610261600480360381019061025c9190611d0b565b61052f565b60405161026e9190611aa1565b60405180910390f35b34801561028357600080fd5b5061028c610586565b005b34801561029a57600080fd5b506102a361059a565b005b3480156102b157600080fd5b506102ba6107b2565b6040516102c79190611d47565b60405180910390f35b3480156102dc57600080fd5b506102e56107ea565b6040516102f29190611952565b60405180910390f35b34801561030757600080fd5b50610322600480360381019061031d9190611a1c565b61088b565b60405161032f9190611a77565b60405180910390f35b34801561034457600080fd5b5061034d6108ae565b60405161035a9190611952565b60405180910390f35b34801561036f57600080fd5b5061038a60048036038101906103859190611d62565b6108e7565b6040516103979190611aa1565b60405180910390f35b3480156103ac57600080fd5b506103c760048036038101906103c29190611d0b565b61097c565b005b606060006103d5610a02565b90508060030180546103e690611dd1565b80601f016020809104026020016040519081016040528092919081815260200182805461041290611dd1565b801561045f5780601f106104345761010080835404028352916020019161045f565b820191906000526020600020905b81548152906001019060200180831161044257829003601f168201915b505050505091505090565b600080610475610a2a565b9050610482818585610a32565b600191505092915050565b600080610498610a02565b9050806002015491505090565b6000806104b0610a2a565b90506104bd858285610a44565b6104c8858585610ad9565b60019150509392505050565b60006012905090565b6104e5610bcd565b6104ee82610cb3565b6104f88282610cbe565b5050565b6000610506610ddd565b7f360894a13ba1a3210667c828492db98dca3e2076cc3735a920a3ca505d382bbc60001b905090565b60008061053a610a02565b90508060000160008473ffffffffffffffffffffffffffffffffffffffff1673ffffffffffffffffffffffffffffffffffffffff16815260200190815260200160002054915050919050565b61058e610e64565b6105986000610eeb565b565b60006105a4610fc2565b905060008160000160089054906101000a900460ff1615905060008260000160009054906101000a900467ffffffffffffffff1690506000808267ffffffffffffffff161480156105f25750825b9050600060018367ffffffffffffffff16148015610627575060003073ffffffffffffffffffffffffffffffffffffffff163b145b905081158015610635575080155b1561066c576040517ff92ee8a900000000000000000000000000000000000000000000000000000000815260040160405180910390fd5b60018560000160006101000a81548167ffffffffffffffff021916908367ffffffffffffffff16021790555083156106bc5760018560000160086101000a81548160ff0219169083151502179055505b6107306040518060400160405280600781526020017f4d79546f6b656e000000000000000000000000000000000000000000000000008152506040518060400160405280600381526020017f4d544b0000000000000000000000000000000000000000000000000000000000815250610fd6565b610738610fec565b61074f336c01431e0fae6d7217caa0000000610ff6565b83156107ab5760008560000160086101000a81548160ff0219169083151502179055507fc7f505b2f371ae2175ee4913f4499e1f2633a7b5936321eed1cdaeb6115181d260016040516107a29190611e5b565b60405180910390a15b5050505050565b6000806107bd611078565b90508060000160009054906101000a900473ffffffffffffffffffffffffffffffffffffffff1691505090565b606060006107f6610a02565b905080600401805461080790611dd1565b80601f016020809104026020016040519081016040528092919081815260200182805461083390611dd1565b80156108805780601f1061085557610100808354040283529160200191610880565b820191906000526020600020905b81548152906001019060200180831161086357829003601f168201915b505050505091505090565b600080610896610a2a565b90506108a3818585610ad9565b600191505092915050565b6040518060400160405280600581526020017f352e302e3000000000000000000000000000000000000000000000000000000081525081565b6000806108f2610a02565b90508060010160008573ffffffffffffffffffffffffffffffffffffffff1673ffffffffffffffffffffffffffffffffffffffff16815260200190815260200160002060008473ffffffffffffffffffffffffffffffffffffffff1673ffffffffffffffffffffffffffffffffffffffff1681526020019081526020016000205491505092915050565b610984610e64565b600073ffffffffffffffffffffffffffffffffffffffff168173ffffffffffffffffffffffffffffffffffffffff16036109f65760006040517f1e4fbdf70000000000000000000000000000000000000000000000000000000081526004016109ed9190611d47565b60405180910390fd5b6109ff81610eeb565b50565b60007f52c63247e1f47db19d5ce0460030c497f067ca4cebf71ba98eeadabe20bace00905090565b600033905090565b610a3f83838360016110a0565b505050565b6000610a5084846108e7565b90507fffffffffffffffffffffffffffffffffffffffffffffffffffffffffffffffff811015610ad35781811015610ac3578281836040517ffb8f41b2000000000000000000000000000000000000000000000000000000008152600401610aba93929190611e76565b60405180910390fd5b610ad2848484840360006110a0565b5b50505050565b600073ffffffffffffffffffffffffffffffffffffffff168373ffffffffffffffffffffffffffffffffffffffff1603610b4b5760006040517f96c6fd1e000000000000000000000000000000000000000000000000000000008152600401610b429190611d47565b60405180910390fd5b600073ffffffffffffffffffffffffffffffffffffffff168273ffffffffffffffffffffffffffffffffffffffff1603610bbd5760006040517fec442f05000000000000000000000000000000000000000000000000000000008152600401610bb49190611d47565b60405180910390fd5b610bc8838383611286565b505050565b7f000000000000000000000000000000000000000000000000000000000000000073ffffffffffffffffffffffffffffffffffffffff163073ffffffffffffffffffffffffffffffffffffffff161480610c7a57507f000000000000000000000000000000000000000000000000000000000000000073ffffffffffffffffffffffffffffffffffffffff16610c616114c5565b73ffffffffffffffffffffffffffffffffffffffff1614155b15610cb1576040517fe07c8dba00000000000000000000000000000000000000000000000000000000815260040160405180910390fd5b565b610cbb610e64565b50565b8173ffffffffffffffffffffffffffffffffffffffff166352d1902d6040518163ffffffff1660e01b8152600401602060405180830381865afa925050508015610d2657506040513d601f19601f82011682018060405250810190610d239190611ed9565b60015b610d6757816040517f4c9c8ce3000000000000000000000000000000000000000000000000000000008152600401610d5e9190611d47565b60405180910390fd5b7f360894a13ba1a3210667c828492db98dca3e2076cc3735a920a3ca505d382bbc60001b8114610dce57806040517faa1d49a4000000000000000000000000000000000000000000000000000000008152600401610dc59190611cf0565b60405180910390fd5b610dd8838361151c565b505050565b7f000000000000000000000000000000000000000000000000000000000000000073ffffffffffffffffffffffffffffffffffffffff163073ffffffffffffffffffffffffffffffffffffffff1614610e62576040517fe07c8dba00000000000000000000000000000000000000000000000000000000815260040160405180910390fd5b565b610e6c610a2a565b73ffffffffffffffffffffffffffffffffffffffff16610e8a6107b2565b73ffffffffffffffffffffffffffffffffffffffff1614610ee957610ead610a2a565b6040517f118cdaa7000000000000000000000000000000000000000000000000000000008152600401610ee09190611d47565b60405180910390fd5b565b6000610ef5611078565b905060008160000160009054906101000a900473ffffffffffffffffffffffffffffffffffffffff169050828260000160006101000a81548173ffffffffffffffffffffffffffffffffffffffff021916908373ffffffffffffffffffffffffffffffffffffffff1602179055508273ffffffffffffffffffffffffffffffffffffffff168173ffffffffffffffffffffffffffffffffffffffff167f8be0079c531659141344cd1fd0a4f28419497f9722a3daafe3b4186f6b6457e060405160405180910390a3505050565b600080610fcd61158f565b90508091505090565b610fde6115ba565b610fe882826115fa565b5050565b610ff46115ba565b565b600073ffffffffffffffffffffffffffffffffffffffff168273ffffffffffffffffffffffffffffffffffffffff16036110685760006040517fec442f0500000000000000000000000000000000000000000000000000000000815260040161105f9190611d47565b60405180910390fd5b61107460008383611286565b5050565b60007f9016d09d72d40fdae2fd8ceac6b6234c7706214fd39c1cd1e609a0528c199300905090565b60006110aa610a02565b9050600073ffffffffffffffffffffffffffffffffffffffff168573ffffffffffffffffffffffffffffffffffffffff160361111e5760006040517fe602df050000000000000000000000000000000000000000000000000000000081526004016111159190611d47565b60405180910390fd5b600073ffffffffffffffffffffffffffffffffffffffff168473ffffffffffffffffffffffffffffffffffffffff16036111905760006040517f94280d620000000000000000000000000000000000000000000000000000000081526004016111879190611d47565b60405180910390fd5b828160010160008773ffffffffffffffffffffffffffffffffffffffff1673ffffffffffffffffffffffffffffffffffffffff16815260200190815260200160002060008673ffffffffffffffffffffffffffffffffffffffff1673ffffffffffffffffffffffffffffffffffffffff16815260200190815260200160002081905550811561127f578373ffffffffffffffffffffffffffffffffffffffff168573ffffffffffffffffffffffffffffffffffffffff167f8c5be1e5ebec7d5bd14f71427d1e84f3dd0314c0f7b2291e5b200ac8c7c3b925856040516112769190611aa1565b60405180910390a35b5050505050565b6000611290610a02565b9050600073ffffffffffffffffffffffffffffffffffffffff168473ffffffffffffffffffffffffffffffffffffffff16036112e657818160020160008282546112da9190611f35565b925050819055506113bf565b60008160000160008673ffffffffffffffffffffffffffffffffffffffff1673ffffffffffffffffffffffffffffffffffffffff16815260200190815260200160002054905082811015611375578481846040517fe450d38c00000000000000000000000000000000000000000000000000000000815260040161136c93929190611e76565b60405180910390fd5b8281038260000160008773ffffffffffffffffffffffffffffffffffffffff1673ffffffffffffffffffffffffffffffffffffffff16815260200190815260200160002081905550505b600073ffffffffffffffffffffffffffffffffffffffff168373ffffffffffffffffffffffffffffffffffffffff160361140a5781816002016000828254039250508190555061145a565b818160000160008573ffffffffffffffffffffffffffffffffffffffff1673ffffffffffffffffffffffffffffffffffffffff168152602001908152602001600020600082825401925050819055505b8273ffffffffffffffffffffffffffffffffffffffff168473ffffffffffffffffffffffffffffffffffffffff167fddf252ad1be2c89b69c2b068fc378daa952ba7f163c4a11628f55a4df523b3ef846040516114b79190611aa1565b60405180910390a350505050565b60006114f37f360894a13ba1a3210667c828492db98dca3e2076cc3735a920a3ca505d382bbc60001b611637565b60000160009054906101000a900473ffffffffffffffffffffffffffffffffffffffff16905090565b61152582611641565b8173ffffffffffffffffffffffffffffffffffffffff167fbc7cd75a20ee27fd9adebab32041f755214dbc6bffa90cc0225b39da2e5c2d3b60405160405180910390a26000815111156115825761157c828261170e565b5061158b565b61158a611792565b5b5050565b60007ff0c57e16840df040f15088dc2f81fe391c3923bec73e23a9662efc9c229c6a0060001b905090565b6115c26117cf565b6115f8576040517fd7e6bcf800000000000000000000000000000000000000000000000000000000815260040160405180910390fd5b565b6116026115ba565b600061160c610a02565b90508281600301908161161f919061210b565b5081816004019081611631919061210b565b50505050565b6000819050919050565b60008173ffffffffffffffffffffffffffffffffffffffff163b0361169d57806040517f4c9c8ce30000000000000000000000000000000000000000000000000000000081526004016116949190611d47565b60405180910390fd5b806116ca7f360894a13ba1a3210667c828492db98dca3e2076cc3735a920a3ca505d382bbc60001b611637565b60000160006101000a81548173ffffffffffffffffffffffffffffffffffffffff021916908373ffffffffffffffffffffffffffffffffffffffff16021790555050565b60606000808473ffffffffffffffffffffffffffffffffffffffff16846040516117389190612224565b600060405180830381855af49150503d8060008114611773576040519150601f19603f3d011682016040523d82523d6000602084013e611778565b606091505b50915091506117888583836117ef565b9250505092915050565b60003411156117cd576040517fb398979f00000000000000000000000000000000000000000000000000000000815260040160405180910390fd5b565b60006117d9610fc2565b60000160089054906101000a900460ff16905090565b606082611804576117ff8261187e565b611876565b6000825114801561182c575060008473ffffffffffffffffffffffffffffffffffffffff163b145b1561186e57836040517f9996b3150000000000000000000000000000000000000000000000000000000081526004016118659190611d47565b60405180910390fd5b819050611877565b5b9392505050565b60008151111561189057805160208201fd5b6040517fd6bda27500000000000000000000000000000000000000000000000000000000815260040160405180910390fd5b600081519050919050565b600082825260208201905092915050565b60005b838110156118fc5780820151818401526020810190506118e1565b60008484015250505050565b6000601f19601f8301169050919050565b6000611924826118c2565b61192e81856118cd565b935061193e8185602086016118de565b61194781611908565b840191505092915050565b6000602082019050818103600083015261196c8184611919565b905092915050565b6000604051905090565b600080fd5b600080fd5b600073ffffffffffffffffffffffffffffffffffffffff82169050919050565b60006119b382611988565b9050919050565b6119c3816119a8565b81146119ce57600080fd5b50565b6000813590506119e0816119ba565b92915050565b6000819050919050565b6119f9816119e6565b8114611a0457600080fd5b50565b600081359050611a16816119f0565b92915050565b60008060408385031215611a3357611a3261197e565b5b6000611a41858286016119d1565b9250506020611a5285828601611a07565b9150509250929050565b60008115159050919050565b611a7181611a5c565b82525050565b6000602082019050611a8c6000830184611a68565b92915050565b611a9b816119e6565b82525050565b6000602082019050611ab66000830184611a92565b92915050565b600080600060608486031215611ad557611ad461197e565b5b6000611ae3868287016119d1565b9350506020611af4868287016119d1565b9250506040611b0586828701611a07565b9150509250925092565b600060ff82169050919050565b611b2581611b0f565b82525050565b6000602082019050611b406000830184611b1c565b92915050565b600080fd5b600080fd5b7f4e487b7100000000000000000000000000000000000000000000000000000000600052604160045260246000fd5b611b8882611908565b810181811067ffffffffffffffff82111715611ba757611ba6611b50565b5b80604052505050565b6000611bba611974565b9050611bc68282611b7f565b919050565b600067ffffffffffffffff821115611be657611be5611b50565b5b611bef82611908565b9050602081019050919050565b82818337600083830152505050565b6000611c1e611c1984611bcb565b611bb0565b905082815260208101848484011115611c3a57611c39611b4b565b5b611c45848285611bfc565b509392505050565b600082601f830112611c6257611c61611b46565b5b8135611c72848260208601611c0b565b91505092915050565b60008060408385031215611c9257611c9161197e565b5b6000611ca0858286016119d1565b925050602083013567ffffffffffffffff811115611cc157611cc0611983565b5b611ccd85828601611c4d565b9150509250929050565b6000819050919050565b611cea81611cd7565b82525050565b6000602082019050611d056000830184611ce1565b92915050565b600060208284031215611d2157611d2061197e565b5b6000611d2f848285016119d1565b91505092915050565b611d41816119a8565b82525050565b6000602082019050611d5c6000830184611d38565b92915050565b60008060408385031215611d7957611d7861197e565b5b6000611d87858286016119d1565b9250506020611d98858286016119d1565b9150509250929050565b7f4e487b7100000000000000000000000000000000000000000000000000000000600052602260045260246000fd5b60006002820490506001821680611de957607f821691505b602082108103611dfc57611dfb611da2565b5b50919050565b6000819050919050565b600067ffffffffffffffff82169050919050565b6000819050919050565b6000611e45611e40611e3b84611e02565b611e20565b611e0c565b9050919050565b611e5581611e2a565b82525050565b6000602082019050611e706000830184611e4c565b92915050565b6000606082019050611e8b6000830186611d38565b611e986020830185611a92565b611ea56040830184611a92565b949350505050565b611eb681611cd7565b8114611ec157600080fd5b50565b600081519050611ed381611ead565b92915050565b600060208284031215611eef57611eee61197e565b5b6000611efd84828501611ec4565b91505092915050565b7f4e487b7100000000000000000000000000000000000000000000000000000000600052601160045260246000fd5b6000611f40826119e6565b9150611f4b836119e6565b9250828201905080821115611f6357611f62611f06565b5b92915050565b60008190508160005260206000209050919050565b60006020601f8301049050919050565b600082821b905092915050565b600060088302611fcb7fffffffffffffffffffffffffffffffffffffffffffffffffffffffffffffffff82611f8e565b611fd58683611f8e565b95508019841693508086168417925050509392505050565b6000612008612003611ffe846119e6565b611e20565b6119e6565b9050919050565b6000819050919050565b61202283611fed565b61203661202e8261200f565b848454611f9b565b825550505050565b600090565b61204b61203e565b612056818484612019565b505050565b5b8181101561207a5761206f600082612043565b60018101905061205c565b5050565b601f8211156120bf5761209081611f69565b61209984611f7e565b810160208510156120a8578190505b6120bc6120b485611f7e565b83018261205b565b50505b505050565b600082821c905092915050565b60006120e2600019846008026120c4565b1980831691505092915050565b60006120fb83836120d1565b9150826002028217905092915050565b612114826118c2565b67ffffffffffffffff81111561212d5761212c611b50565b5b6121378254611dd1565b61214282828561207e565b600060209050601f8311600181146121755760008415612163578287015190505b61216d85826120ef565b8655506121d5565b601f19841661218386611f69565b60005b828110156121ab57848901518255600182019150602085019450602081019050612186565b868310156121c857848901516121c4601f8916826120d1565b8355505b6001600288020188555050505b505050505050565b600081519050919050565b600081905092915050565b60006121fe826121dd565b61220881856121e8565b93506122188185602086016118de565b80840191505092915050565b600061223082846121f3565b91508190509291505056fea26469706673582212205f871b2d7d2a3d7d129b7ef37655c2db6bec6aa72dbd86f4a64b68a53a3d68cf64736f6c634300081c0033",
  "devdoc": {
    "errors": {
      "AddressEmptyCode(address)": [
        {
          "details": "There's no code at `target` (it is not a contract)."
        }
      ],
      "ERC1967InvalidImplementation(address)": [
        {
          "details": "The `implementation` of the proxy is invalid."
        }
      ],
      "ERC1967NonPayable()": [
        {
          "details": "An upgrade function sees `msg.value > 0` that may be lost."
        }
      ],
      "ERC20InsufficientAllowance(address,uint256,uint256)": [
        {
          "details": "Indicates a failure with the `spender`s `allowance`. Used in transfers.",
          "params": {
            "allowance": "Amount of tokens a `spender` is allowed to operate with.",
            "needed": "Minimum amount required to perform a transfer.",
            "spender": "Address that may be allowed to operate on tokens without being their owner."
          }
        }
      ],
      "ERC20InsufficientBalance(address,uint256,uint256)": [
        {
          "details": "Indicates an error related to the current `balance` of a `sender`. Used in transfers.",
          "params": {
            "balance": "Current balance for the interacting account.",
            "needed": "Minimum amount required to perform a transfer.",
            "sender": "Address whose tokens are being transferred."
          }
        }
      ],
      "ERC20InvalidApprover(address)": [
        {
          "details": "Indicates a failure with the `approver` of a token to be approved. Used in approvals.",
          "params": {
            "approver": "Address initiating an approval operation."
          }
        }
      ],
      "ERC20InvalidReceiver(address)": [
        {
          "details": "Indicates a failure with the token `receiver`. Used in transfers.",
          "params": {
            "receiver": "Address to which tokens are being transferred."
          }
        }
      ],
      "ERC20InvalidSender(address)": [
        {
          "details": "Indicates a failure with the token `sender`. Used in transfers.",
          "params": {
            "sender": "Address whose tokens are being transferred."
          }
        }
      ],
      "ERC20InvalidSpender(address)": [
        {
          "details": "Indicates a failure with the `spender` to be approved. Used in approvals.",
          "params": {
            "spender": "Address that may be allowed to operate on tokens without being their owner."
          }
        }
      ],
      "FailedCall()": [
        {
          "details": "A call to an address target failed. The target may have reverted."
        }
      ],
      "InvalidInitialization()": [
        {
          "details": "The contract is already initialized."
        }
      ],
      "NotInitializing()": [
        {
          "details": "The contract is not initializing."
        }
      ],
      "OwnableInvalidOwner(address)": [
        {
          "details": "The owner is not a valid owner account. (eg. `address(0)`)"
        }
      ],
      "OwnableUnauthorizedAccount(address)": [
        {
          "details": "The caller account is not authorized to perform an operation."
        }
      ],
      "UUPSUnauthorizedCallContext()": [
        {
          "details": "The call is from an unauthorized context."
        }
      ],
      "UUPSUnsupportedProxiableUUID(bytes32)": [
        {
          "details": "The storage `slot` is unsupported as a UUID."
        }
      ]
    },
    "events": {
      "Approval(address,address,uint256)": {
        "details": "Emitted when the allowance of a `spender` for an `owner` is set by a call to {approve}. `value` is the new allowance."
      },
      "Initialized(uint64)": {
        "details": "Triggered when the contract has been initialized or reinitialized."
      },
      "Transfer(address,address,uint256)": {
        "details": "Emitted when `value` tokens are moved from one account (`from`) to another (`to`). Note that `value` may be zero."
      },
      "Upgraded(address)": {
        "details": "Emitted when the implementation is upgraded."
      }
    },
    "kind": "dev",
    "methods": {
      "allowance(address,address)": {
        "details": "Returns the remaining number of tokens that `spender` will be allowed to spend on behalf of `owner` through {transferFrom}. This is zero by default. This value changes when {approve} or {transferFrom} are called."
      },
      "approve(address,uint256)": {
        "details": "See {IERC20-approve}. NOTE: If `value` is the maximum `uint256`, the allowance is not updated on `transferFrom`. This is semantically equivalent to an infinite approval. Requirements: - `spender` cannot be the zero address."
      },
      "balanceOf(address)": {
        "details": "Returns the value of tokens owned by `account`."
      },
      "constructor": {
        "custom:oz-upgrades-unsafe-allow": "constructor"
      },
      "decimals()": {
        "details": "Returns the number of decimals used to get its user representation. For example, if `decimals` equals `2`, a balance of `505` tokens should be displayed to a user as `5.05` (`505 / 10 ** 2`). Tokens usually opt for a value of 18, imitating the relationship between Ether and Wei. This is the default value returned by this function, unless it's overridden. NOTE: This information is only used for _display_ purposes: it in no way affects any of the arithmetic of the contract, including {IERC20-balanceOf} and {IERC20-transfer}."
      },
      "name()": {
        "details": "Returns the name of the token."
      },
      "owner()": {
        "details": "Returns the address of the current owner."
      },
      "proxiableUUID()": {
        "details": "Implementation of the ERC-1822 {proxiableUUID} function. This returns the storage slot used by the implementation. It is used to validate the implementation's compatibility when performing an upgrade. IMPORTANT: A proxy pointing at a proxiable contract should not be considered proxiable itself, because this risks bricking a proxy that upgrades to it, by delegating to itself until out of gas. Thus it is critical that this function revert if invoked through a proxy. This is guaranteed by the `notDelegated` modifier."
      },
      "renounceOwnership()": {
        "details": "Leaves the contract without owner. It will not be possible to call `onlyOwner` functions. Can only be called by the current owner. NOTE: Renouncing ownership will leave the contract without an owner, thereby disabling any functionality that is only available to the owner."
      },
      "symbol()": {
        "details": "Returns the symbol of the token, usually a shorter version of the name."
      },
      "totalSupply()": {
        "details": "Returns the value of tokens in existence."
      },
      "transfer(address,uint256)": {
        "details": "See {IERC20-transfer}. Requirements: - `to` cannot be the zero address. - the caller must have a balance of at least `value`."
      },
      "transferFrom(address,address,uint256)": {
        "details": "See {IERC20-transferFrom}. Skips emitting an {Approval} event indicating an allowance update. This is not required by the ERC. See {xref-ERC20-_approve-address-address-uint256-bool-}[_approve]. NOTE: Does not update the allowance if the current allowance is the maximum `uint256`. Requirements: - `from` and `to` cannot be the zero address. - `from` must have a balance of at least `value`. - the caller must have allowance for ``from``'s tokens of at least `value`."
      },
      "transferOwnership(address)": {
        "details": "Transfers ownership of the contract to a new account (`newOwner`). Can only be called by the current owner."
      },
      "upgradeToAndCall(address,bytes)": {
        "custom:oz-upgrades-unsafe-allow-reachable": "delegatecall",
        "details": "Upgrade the implementation of the proxy to `newImplementation`, and subsequently execute the function call encoded in `data`. Calls {_authorizeUpgrade}. Emits an {Upgraded} event."
      }
    },
    "version": 1
  },
  "userdoc": {
    "kind": "user",
    "methods": {},
    "version": 1
  },
  "storageLayout": {
    "storage": [],
    "types": null
  }
}